{
  "contractName": "PaymentContract",
  "abi": [
    {
      "constant": true,
      "inputs": [
        {
          "internalType": "uint256",
          "name": "",
          "type": "uint256"
        }
      ],
      "name": "deals",
      "outputs": [
        {
          "internalType": "uint256",
          "name": "id",
          "type": "uint256"
        },
        {
          "internalType": "uint256",
          "name": "startShare",
          "type": "uint256"
        },
        {
          "internalType": "uint256",
          "name": "endShare",
          "type": "uint256"
        },
        {
          "internalType": "uint256",
          "name": "startTime",
          "type": "uint256"
        },
        {
          "internalType": "uint256",
          "name": "endTime",
          "type": "uint256"
        }
      ],
      "payable": false,
      "stateMutability": "view",
      "type": "function"
    },
    {
      "constant": false,
      "inputs": [
        {
          "internalType": "uint256",
          "name": "id",
          "type": "uint256"
        },
        {
          "internalType": "uint256",
          "name": "startShare",
          "type": "uint256"
        },
        {
          "internalType": "uint256",
          "name": "endShare",
          "type": "uint256"
        },
        {
          "internalType": "uint256",
          "name": "startTime",
          "type": "uint256"
        },
        {
          "internalType": "uint256",
          "name": "endTime",
          "type": "uint256"
        }
      ],
      "name": "create",
      "outputs": [
        {
          "internalType": "bool",
          "name": "",
          "type": "bool"
        }
      ],
      "payable": false,
      "stateMutability": "nonpayable",
      "type": "function"
    },
    {
      "constant": true,
      "inputs": [
        {
          "internalType": "uint256",
          "name": "id",
          "type": "uint256"
        }
      ],
      "name": "find",
      "outputs": [
        {
          "components": [
            {
              "internalType": "uint256",
              "name": "id",
              "type": "uint256"
            },
            {
              "internalType": "uint256",
              "name": "startShare",
              "type": "uint256"
            },
            {
              "internalType": "uint256",
              "name": "endShare",
              "type": "uint256"
            },
            {
              "internalType": "uint256",
              "name": "startTime",
              "type": "uint256"
            },
            {
              "internalType": "uint256",
              "name": "endTime",
              "type": "uint256"
            }
          ],
          "internalType": "struct PaymentContract.Deal",
          "name": "",
          "type": "tuple"
        }
      ],
      "payable": false,
      "stateMutability": "view",
      "type": "function"
    },
    {
      "constant": true,
      "inputs": [
        {
          "internalType": "uint256",
          "name": "id",
          "type": "uint256"
        },
        {
          "internalType": "uint256",
          "name": "timeStamp",
          "type": "uint256"
        }
      ],
      "name": "getShare",
      "outputs": [
        {
          "internalType": "uint256",
          "name": "",
          "type": "uint256"
        }
      ],
      "payable": false,
      "stateMutability": "view",
      "type": "function"
    }
  ],
  "bytecode": "0x608060405234801561001057600080fd5b50610704806100206000396000f3fe608060405234801561001057600080fd5b506004361061004c5760003560e01c806303988f84146100515780633e530e5b146100855780635dd65cfe146100b5578063bb4fa5dd146100e5575b600080fd5b61006b6004803603610066919081019061047f565b610115565b60405161007c959493929190610641565b60405180910390f35b61009f600480360361009a919081019061047f565b610158565b6040516100ac919061060b565b60405180910390f35b6100cf60048036036100ca91908101906104a8565b61020d565b6040516100dc9190610626565b60405180910390f35b6100ff60048036036100fa91908101906104e4565b610351565b60405161010c91906105f0565b60405180910390f35b6000818154811061012257fe5b90600052602060002090600502016000915090508060000154908060010154908060020154908060030154908060040154905085565b61016061043b565b60008090505b60008054905081101561020657826000828154811061018157fe5b90600052602060002090600502016000015414156101f957600081815481106101a657fe5b90600052602060002090600502016040518060a001604052908160008201548152602001600182015481526020016002820154815260200160038201548152602001600482015481525050915050610208565b8080600101915050610166565b505b919050565b600080600090505b60008054905081101561034957836000828154811061023057fe5b906000526020600020906005020160000154141561033c5760006127106000838154811061025a57fe5b9060005260206000209060050201600301546000848154811061027957fe5b906000526020600020906005020160040154038161029357fe5b0484600084815481106102a257fe5b90600052602060002090600502016004015403816102bc57fe5b04905060008083815481106102cd57fe5b90600052602060002090600502016002015461271083600086815481106102f057fe5b9060005260206000209060050201600201546000878154811061030f57fe5b90600052602060002090600502016001015403028161032a57fe5b0401905060648102935050505061034b565b8080600101915050610215565b505b92915050565b600080600090505b6000805490508110156103a357866000828154811061037457fe5b9060005260206000209060050201600001541415610396576000915050610432565b8080600101915050610359565b5060006040518060a0016040528088815260200187815260200186815260200185815260200184815250908060018154018082558091505090600182039060005260206000209060050201600090919290919091506000820151816000015560208201518160010155604082015181600201556060820151816003015560808201518160040155505050600190505b95945050505050565b6040518060a0016040528060008152602001600081526020016000815260200160008152602001600081525090565b600081359050610479816106aa565b92915050565b60006020828403121561049157600080fd5b600061049f8482850161046a565b91505092915050565b600080604083850312156104bb57600080fd5b60006104c98582860161046a565b92505060206104da8582860161046a565b9150509250929050565b600080600080600060a086880312156104fc57600080fd5b600061050a8882890161046a565b955050602061051b8882890161046a565b945050604061052c8882890161046a565b935050606061053d8882890161046a565b925050608061054e8882890161046a565b9150509295509295909350565b61056481610694565b82525050565b60a08201600082015161058060008501826105d2565b50602082015161059360208501826105d2565b5060408201516105a660408501826105d2565b5060608201516105b960608501826105d2565b5060808201516105cc60808501826105d2565b50505050565b6105db816106a0565b82525050565b6105ea816106a0565b82525050565b6000602082019050610605600083018461055b565b92915050565b600060a082019050610620600083018461056a565b92915050565b600060208201905061063b60008301846105e1565b92915050565b600060a08201905061065660008301886105e1565b61066360208301876105e1565b61067060408301866105e1565b61067d60608301856105e1565b61068a60808301846105e1565b9695505050505050565b60008115159050919050565b6000819050919050565b6106b3816106a0565b81146106be57600080fd5b5056fea365627a7a7231582012236cefec38cdfa601833cb5fcbe9d24ea596c980bd1b98370e431290cc0f2b6c6578706572696d656e74616cf564736f6c63430005100040",
  "source": "// SPDX-License-Identifier: MIT\npragma solidity 0.5.16;\npragma experimental ABIEncoderV2;\n\ncontract PaymentContract {\n\n  struct Deal {\n    uint id;\n    uint startShare;\n    uint endShare;\n    uint startTime;\n    uint endTime;\n  }\n\n  Deal[] public deals;\n\n  function create (\n    uint id,\n    uint startShare,\n    uint endShare,\n    uint startTime,\n    uint endTime\n  ) public returns (bool) {\n    for (uint i = 0; i < deals.length; i++) {\n      if(deals[i].id == id) {\n        return false;\n      }\n    }\n    deals.push(Deal({\n      id: id,\n      startShare: startShare,\n      endShare: endShare,\n      startTime: startTime,\n      endTime: endTime\n    }));\n    return true;\n  }\n\n  function find (\n    uint id\n  ) public view returns (Deal memory) {\n    for (uint i = 0; i < deals.length; i++) {\n      if(deals[i].id == id) {\n        return deals[i];\n      }\n    }\n  }\n\n  function getShare (\n    uint id,\n    uint timeStamp\n  ) public view returns (uint) {\n    for (uint i = 0; i < deals.length; i++) {\n      if(deals[i].id == id) {\n        // Автоматически переводим в проценты с ошибкой округления в 0.01%\n        uint totalShare = (deals[i].endTime - timeStamp) / ((deals[i].endTime - deals[i].startTime) / 10000);\n        // Траснпонируем точку с отрезка 0 - 1 на отрезок endShare - startShare\n        uint share = ((deals[i].startShare - deals[i].endShare) * totalShare) / 10000 + deals[i].endShare;\n        return share * 100;\n      }\n    }\n  }\n}\n",
  "sourcePath": "/home/livingstone/hackaton/fin-node/contracts/PaymentContract.sol",
  "compiler": {
    "name": "solc",
    "version": "0.5.16+commit.9c3226ce.Emscripten.clang"
  },
  "schemaVersion": "3.4.3",
  "updatedAt": "2021-09-04T18:48:03.998Z",
  "networkType": "ethereum",
  "devdoc": {
    "methods": {}
  },
  "userdoc": {
    "methods": {}
  }
}