{
  "contractName": "PaymentContract",
  "abi": [
    {
      "constant": true,
      "inputs": [
        {
          "internalType": "uint256",
          "name": "",
          "type": "uint256"
        }
      ],
      "name": "deals",
      "outputs": [
        {
          "internalType": "uint256",
          "name": "id",
          "type": "uint256"
        },
        {
          "internalType": "uint256",
          "name": "startShare",
          "type": "uint256"
        },
        {
          "internalType": "uint256",
          "name": "endShare",
          "type": "uint256"
        },
        {
          "internalType": "uint256",
          "name": "startTime",
          "type": "uint256"
        },
        {
          "internalType": "uint256",
          "name": "endTime",
          "type": "uint256"
        }
      ],
      "payable": false,
      "stateMutability": "view",
      "type": "function"
    },
    {
      "constant": false,
      "inputs": [
        {
          "internalType": "uint256",
          "name": "id",
          "type": "uint256"
        },
        {
          "internalType": "uint256",
          "name": "startShare",
          "type": "uint256"
        },
        {
          "internalType": "uint256",
          "name": "endShare",
          "type": "uint256"
        },
        {
          "internalType": "uint256",
          "name": "startTime",
          "type": "uint256"
        },
        {
          "internalType": "uint256",
          "name": "endTime",
          "type": "uint256"
        }
      ],
      "name": "create",
      "outputs": [
        {
          "internalType": "bool",
          "name": "",
          "type": "bool"
        }
      ],
      "payable": false,
      "stateMutability": "nonpayable",
      "type": "function"
    },
    {
      "constant": true,
      "inputs": [
        {
          "internalType": "uint256",
          "name": "id",
          "type": "uint256"
        }
      ],
      "name": "find",
      "outputs": [
        {
          "components": [
            {
              "internalType": "uint256",
              "name": "id",
              "type": "uint256"
            },
            {
              "internalType": "uint256",
              "name": "startShare",
              "type": "uint256"
            },
            {
              "internalType": "uint256",
              "name": "endShare",
              "type": "uint256"
            },
            {
              "internalType": "uint256",
              "name": "startTime",
              "type": "uint256"
            },
            {
              "internalType": "uint256",
              "name": "endTime",
              "type": "uint256"
            }
          ],
          "internalType": "struct PaymentContract.Deal",
          "name": "",
          "type": "tuple"
        }
      ],
      "payable": false,
      "stateMutability": "view",
      "type": "function"
    },
    {
      "constant": true,
      "inputs": [
        {
          "internalType": "uint256",
          "name": "id",
          "type": "uint256"
        },
        {
          "internalType": "uint256",
          "name": "timeStamp",
          "type": "uint256"
        }
      ],
      "name": "getShare",
      "outputs": [
        {
          "internalType": "uint256",
          "name": "",
          "type": "uint256"
        }
      ],
      "payable": false,
      "stateMutability": "view",
      "type": "function"
    }
  ],
  "bytecode": "0x608060405234801561001057600080fd5b50610694806100206000396000f3fe608060405234801561001057600080fd5b506004361061004c5760003560e01c806303988f84146100515780633e530e5b146100855780635dd65cfe146100b5578063bb4fa5dd146100e5575b600080fd5b61006b6004803603610066919081019061040f565b610115565b60405161007c9594939291906105d1565b60405180910390f35b61009f600480360361009a919081019061040f565b610158565b6040516100ac919061059b565b60405180910390f35b6100cf60048036036100ca9190810190610438565b61020d565b6040516100dc91906105b6565b60405180910390f35b6100ff60048036036100fa9190810190610474565b6102e1565b60405161010c9190610580565b60405180910390f35b6000818154811061012257fe5b90600052602060002090600502016000915090508060000154908060010154908060020154908060030154908060040154905085565b6101606103cb565b60008090505b60008054905081101561020657826000828154811061018157fe5b90600052602060002090600502016000015414156101f957600081815481106101a657fe5b90600052602060002090600502016040518060a001604052908160008201548152602001600182015481526020016002820154815260200160038201548152602001600482015481525050915050610208565b8080600101915050610166565b505b919050565b600080600090505b6000805490508110156102d957836000828154811061023057fe5b90600052602060002090600502016000015414156102cc5760006127106000838154811061025a57fe5b9060005260206000209060050201600301546000848154811061027957fe5b906000526020600020906005020160040154038161029357fe5b0484600084815481106102a257fe5b90600052602060002090600502016004015403816102bc57fe5b04905060648102925050506102db565b8080600101915050610215565b505b92915050565b600080600090505b60008054905081101561033357866000828154811061030457fe5b90600052602060002090600502016000015414156103265760009150506103c2565b80806001019150506102e9565b5060006040518060a0016040528088815260200187815260200186815260200185815260200184815250908060018154018082558091505090600182039060005260206000209060050201600090919290919091506000820151816000015560208201518160010155604082015181600201556060820151816003015560808201518160040155505050600190505b95945050505050565b6040518060a0016040528060008152602001600081526020016000815260200160008152602001600081525090565b6000813590506104098161063a565b92915050565b60006020828403121561042157600080fd5b600061042f848285016103fa565b91505092915050565b6000806040838503121561044b57600080fd5b6000610459858286016103fa565b925050602061046a858286016103fa565b9150509250929050565b600080600080600060a0868803121561048c57600080fd5b600061049a888289016103fa565b95505060206104ab888289016103fa565b94505060406104bc888289016103fa565b93505060606104cd888289016103fa565b92505060806104de888289016103fa565b9150509295509295909350565b6104f481610624565b82525050565b60a0820160008201516105106000850182610562565b5060208201516105236020850182610562565b5060408201516105366040850182610562565b5060608201516105496060850182610562565b50608082015161055c6080850182610562565b50505050565b61056b81610630565b82525050565b61057a81610630565b82525050565b600060208201905061059560008301846104eb565b92915050565b600060a0820190506105b060008301846104fa565b92915050565b60006020820190506105cb6000830184610571565b92915050565b600060a0820190506105e66000830188610571565b6105f36020830187610571565b6106006040830186610571565b61060d6060830185610571565b61061a6080830184610571565b9695505050505050565b60008115159050919050565b6000819050919050565b61064381610630565b811461064e57600080fd5b5056fea365627a7a723158205b93d362a7d2da288a28c3c9921b0cfaa4018956eef094954a563b42e0ad02976c6578706572696d656e74616cf564736f6c63430005100040",
  "source": "// SPDX-License-Identifier: MIT\npragma solidity 0.5.16;\npragma experimental ABIEncoderV2;\n\ncontract PaymentContract {\n\n  struct Deal {\n    uint id;\n    uint startShare;\n    uint endShare;\n    uint startTime;\n    uint endTime;\n  }\n\n  Deal[] public deals;\n\n  function create (\n    uint id,\n    uint startShare,\n    uint endShare,\n    uint startTime,\n    uint endTime\n  ) public returns (bool) {\n    for (uint i = 0; i < deals.length; i++) {\n      if(deals[i].id == id) {\n        return false;\n      }\n    }\n    deals.push(Deal({\n      id: id,\n      startShare: startShare,\n      endShare: endShare,\n      startTime: startTime,\n      endTime: endTime\n    }));\n    return true;\n  }\n\n  function find (\n    uint id\n  ) public view returns (Deal memory) {\n    for (uint i = 0; i < deals.length; i++) {\n      if(deals[i].id == id) {\n        return deals[i];\n      }\n    }\n  }\n\n  function getShare (\n    uint id,\n    uint timeStamp\n  ) public view returns (uint) {\n    for (uint i = 0; i < deals.length; i++) {\n      if(deals[i].id == id) {\n        // Автоматически переводим в проценты с ошибкой округления в 0.01%\n        uint totalShare = (deals[i].endTime - timeStamp) / ((deals[i].endTime - deals[i].startTime) / 10000);\n        return totalShare * 100;\n      }\n    }\n  }\n}\n",
  "sourcePath": "/home/livingstone/hackaton/fin-node/contracts/PaymentContract.sol",
  "compiler": {
    "name": "solc",
    "version": "0.5.16+commit.9c3226ce.Emscripten.clang"
  },
  "schemaVersion": "3.4.3",
  "updatedAt": "2021-09-03T23:07:48.936Z",
  "networkType": "ethereum",
  "devdoc": {
    "methods": {}
  },
  "userdoc": {
    "methods": {}
  }
}