{
  "contractName": "PaymentContract",
  "abi": [
    {
      "constant": true,
      "inputs": [
        {
          "internalType": "uint256",
          "name": "",
          "type": "uint256"
        }
      ],
      "name": "deals",
      "outputs": [
        {
          "internalType": "uint256",
          "name": "id",
          "type": "uint256"
        },
        {
          "internalType": "uint256",
          "name": "startShare",
          "type": "uint256"
        },
        {
          "internalType": "uint256",
          "name": "endShare",
          "type": "uint256"
        },
        {
          "internalType": "uint256",
          "name": "startTime",
          "type": "uint256"
        },
        {
          "internalType": "uint256",
          "name": "endTime",
          "type": "uint256"
        }
      ],
      "payable": false,
      "stateMutability": "view",
      "type": "function"
    },
    {
      "constant": false,
      "inputs": [
        {
          "internalType": "uint256",
          "name": "id",
          "type": "uint256"
        },
        {
          "internalType": "uint256",
          "name": "startShare",
          "type": "uint256"
        },
        {
          "internalType": "uint256",
          "name": "endShare",
          "type": "uint256"
        },
        {
          "internalType": "uint256",
          "name": "startTime",
          "type": "uint256"
        },
        {
          "internalType": "uint256",
          "name": "endTime",
          "type": "uint256"
        }
      ],
      "name": "create",
      "outputs": [],
      "payable": false,
      "stateMutability": "nonpayable",
      "type": "function"
    },
    {
      "constant": true,
      "inputs": [
        {
          "internalType": "uint256",
          "name": "id",
          "type": "uint256"
        },
        {
          "internalType": "uint256",
          "name": "timeStamp",
          "type": "uint256"
        }
      ],
      "name": "getShare",
      "outputs": [
        {
          "internalType": "uint256",
          "name": "",
          "type": "uint256"
        }
      ],
      "payable": false,
      "stateMutability": "view",
      "type": "function"
    }
  ],
  "bytecode": "0x608060405234801561001057600080fd5b50610322806100206000396000f3fe608060405234801561001057600080fd5b50600436106100415760003560e01c806303988f84146100465780635dd65cfe146100a4578063bb4fa5dd146100f0575b600080fd5b6100726004803603602081101561005c57600080fd5b8101908080359060200190929190505050610146565b604051808681526020018581526020018481526020018381526020018281526020019550505050505060405180910390f35b6100da600480360360408110156100ba57600080fd5b810190808035906020019092919080359060200190929190505050610189565b6040518082815260200191505060405180910390f35b610144600480360360a081101561010657600080fd5b81019080803590602001909291908035906020019092919080359060200190929190803590602001909291908035906020019092919050505061025d565b005b6000818154811061015357fe5b90600052602060002090600502016000915090508060000154908060010154908060020154908060030154908060040154905085565b600080600090505b6000805490508110156102555783600082815481106101ac57fe5b9060005260206000209060050201600001541415610248576000612710600083815481106101d657fe5b906000526020600020906005020160030154600084815481106101f557fe5b906000526020600020906005020160040154038161020f57fe5b04846000848154811061021e57fe5b906000526020600020906005020160040154038161023857fe5b0490506064810292505050610257565b8080600101915050610191565b505b92915050565b60006040518060a0016040528087815260200186815260200185815260200184815260200183815250908060018154018082558091505090600182039060005260206000209060050201600090919290919091506000820151816000015560208201518160010155604082015181600201556060820151816003015560808201518160040155505050505050505056fea265627a7a7231582003ab30566d9afaf9e33940cacabb50c33a44b6f21c165555c3aa732a5ddb528764736f6c63430005100032",
  "source": "// SPDX-License-Identifier: MIT\npragma solidity 0.5.16;\n\ncontract PaymentContract {\n\n  struct Deal {\n    uint id;\n    uint startShare;\n    uint endShare;\n    uint startTime;\n    uint endTime;\n  }\n\n  Deal[] public deals;\n\n  function create (\n    uint id,\n    uint startShare,\n    uint endShare,\n    uint startTime,\n    uint endTime\n  ) public {\n    deals.push(Deal({\n      id: id,\n      startShare: startShare,\n      endShare: endShare,\n      startTime: startTime,\n      endTime: endTime\n    }));\n  }\n\n  function getShare (\n    uint id,\n    uint timeStamp\n  ) public view returns (uint) {\n    for (uint i = 0; i < deals.length; i++) {\n      if(deals[i].id == id) {\n        // Автоматически переводим в проценты с ошибкой округления в 0.01%\n        uint totalShare = (deals[i].endTime - timeStamp) / ((deals[i].endTime - deals[i].startTime) / 10000);\n        return totalShare * 100;\n      }\n    }\n  }\n}\n",
  "sourcePath": "/home/livingstone/hackaton/fin-node/contracts/PaymentContract.sol",
  "compiler": {
    "name": "solc",
    "version": "0.5.16+commit.9c3226ce.Emscripten.clang"
  },
  "schemaVersion": "3.4.3",
  "updatedAt": "2021-09-03T20:37:49.999Z",
  "networkType": "ethereum",
  "devdoc": {
    "methods": {}
  },
  "userdoc": {
    "methods": {}
  }
}